E183321082012                                                                                                                                                                                                                                                                                                                                                                                                                                                                                                                                                                                                                                                                                                                                                                                                                                                                                                                                                                                                                                                                                                                                                                                                                                                                                                                                                                                                                                                                                                                                                                                                                                                                                                                                                                                                                                                                                            
D01846717       LEOCADIA                                QUISPE                        CASA FRANCA                   0010641687       EMPLEADO                                          000000000000001997664833                                                                                                                                                                14 MZ Y LT 37                                                                                       00000000000000000L15012003JAVIER PRADO OESTE NRO 2340                                                                         00                                                                                                                                                                                                        LIMA                                                                            LIMA                                                                            SAN JUAN DE MIRAFLORES                                                          09997075  18690     000075000128
D01846741       RANDY               JEANPIERRE EDUARDO  REYES                         GONZALES                      0070816872       EMPLEADO                                          000000000000001943568686                                                                                                                                                                TRUJILLO NRO 304                                                                                    00000000000000000L00000000                                                                                                    00                                                                                                                                                                                                        LA LIBERTAD                                                                     ASCOPE                                                                          CASA GRANDE                                                                     07247898  18219     000075000097
D01847229       KARINA              REBECA              CULLANCO                      ACHARTE                       0045481358       EMPLEADO                                          056000269385001976664354                                                                                                                                                                G LT 9                                                                                              00000000000000000L00000000                                                                                                    00                                                                                                                                                                                                        ICA                                                                             CHINCHA                                                                         PUEBLO NUEVO                                                                    08344110  00339     000085000097
D01847231       MARIA               ALEXANDRA           LUYO                          HUAMAN                        0070435618       EMPLEADO                                          000000000000001991579930                                                                                                                                                                28 DE JULIO NRO 778                                                                                 00000000000000000L00000000                                                                                                    00                                                                                                                                                                                                        LIMA                                                                            CAŃETE                                                                          IMPERIAL                                                                        08344110  11755     000085000097
D01847235       THANIA              BRIGITTE            BRUNO                         SUPO                          0073123633       EMPLEADO                                          000000000000001969735437                                                                                                                                                                A - 19                                                                                              00000000000000000L00000000                                                                                                    00                                                                                                                                                                                                        PIURA                                                                           TALARA                                                                          PARIŃAS                                                                         07247898  18928     000075000097
D01847237       DEYBI               EDSON               STEELE                        NUNJAR                        0045655802       EMPLEADO                                          000000000000001980349882                                                                                                                                                                B LT 33                                                                                             00000000000000000L00000000                                                                                                    00                                                                                                                                                                                                        PIURA                                                                           TALARA                                                                          PARIŃAS                                                                         07247898  18928     000075000097
D01847238       DINA                ROSALIA             ROJAS                         CASTILLO                      0070563356       EMPLEADO                                          001044270346001044290346                                                                                                                                                                GUADALUPE VICTORIA NRO 701                                                                          00000000000000000L00000000                                                                                                    00                                                                                                                                                                                                        LA LIBERTAD                                                                     TRUJILLO                                                                        LA ESPERANZA                                                                    40111035  15951     000075000097
D01847240       FRANCISCA           MARIBEL             SIFUENTES                     CASTILLO                      0046510677       EMPLEADO                                          000000000000001949979053                                                                                                                                                                K LT 12                                                                                             00000000000000000L00000000                                                                                                    00                                                                                                                                                                                                        LA LIBERTAD                                                                     TRUJILLO                                                                        TRUJILLO                                                                        40111035  15951     000075000097
D01847241       BERTHA              HAYDEE              COSICHE                       RIVERA                        0046583478       EMPLEADO                                          000000000000000000000000                                                                                                                                                                F9 LT 31                                                                                            00000000000000000L00000000                                                                                                    00                                                                                                                                                                                                        LIMA                                                                            LIMA                                                                            VILLA EL SALVADOR                                                               40111035  18422     000085000097
D01847242       KATHERINE           MELISSA             ROBLES                        ZAVALETA                      0047253778       EMPLEADO                                          000000000000001941996196                                                                                                                                                                G LT 05                                                                                             00000000000000000L00000000                                                                                                    00                                                                                                                                                                                                        LA LIBERTAD                                                                     ASCOPE                                                                          CASA GRANDE                                                                     40111035  15951     000075000097
D01847243       NELL                DARWIN              REMIGIO                       ANGELDONIS                    0047644649       EMPLEADO                                          000000000000001969516594                                                                                                                                                                D1 LT 14                                                                                            00000000000000000L00000000                                                                                                    00                                                                                                                                                                                                        PIURA                                                                           TALARA                                                                          PARIŃAS                                                                         07247898  18928     000075000097
D01847244       JENNY               ISABEL              MUŃOZ                         GUTIERREZ                     0047745221       EMPLEADO                                          000000000000001949426757                                                                                                                                                                JUAN VELASCO ALVARADO MZ 2 LT 21                                                                    00000000000000000L00000000                                                                                                    00                                                                                                                                                                                                        LA LIBERTAD                                                                     TRUJILLO                                                                        HUANCHACO                                                                       40111035  15951     000075000097
D01847245       RONALD              PAUL                JARAMILLO                     VICENTE                       0047989808       EMPLEADO                                          000000000000001948774247                                                                                                                                                                X3 LT 22                                                                                            00000000000000000L00000000                                                                                                    00                                                                                                                                                                                                        LA LIBERTAD                                                                     TRUJILLO                                                                        TRUJILLO                                                                        40111035  15951     000075000097
D01847247       YOLI                ROSMERI             CONTRERAS                     RUIZ                          0070032132       EMPLEADO                                          000000000000001975062472                                                                                                                                                                GASPAR MANTILLA NRO 100                                                                             00000000000000000L00000000                                                                                                    00                                                                                                                                                                                                        CAJAMARCA                                                                       CAJABAMBA                                                                       SITACOCHA                                                                       40111035  15951     000075000097
D01847248       MICHAEL             STEVEN              FABIAN                        CORONEL                       0076577484       EMPLEADO                                          000000000000001044446360                                                                                                                                                                TRUJILLO NRO 16                                                                                     00000000000000000L00000000                                                                                                    00                                                                                                                                                                                                        LA LIBERTAD                                                                     TRUJILLO                                                                        LAREDO                                                                          40111035  15951     000075000097
D01847249       JHEYSON             MANUEL              RIVERA                        MONTERO                       0048092663       EMPLEADO                                          000000000000001942003628                                                                                                                                                                BARRIO ESPECIALISTA NRO 09                                                                          00000000000000000L00000000                                                                                                    00                                                                                                                                                                                                        PIURA                                                                           TALARA                                                                          PARIŃAS                                                                         07247898  18928     000075000097
D01847250       ELIANA              FIORELLA            SUPO                          ROSALES                       0073220673       EMPLEADO                                          000000000000001969784042                                                                                                                                                                JORGE BASADRE NRO E-27                                                                              00000000000000000L00000000                                                                                                    00                                                                                                                                                                                                        PIURA                                                                           TALARA                                                                          PARIŃAS                                                                         07247898  18928     000075000097
D01847251       FIORELLA            DEL CARMEN          SANCHEZ                       ASMAT                         0047898890       EMPLEADO                                          000000000000001959012780                                                                                                                                                                PROGRESO NRO 967                                                                                    00000000000000000L00000000                                                                                                    00                                                                                                                                                                                                        LA LIBERTAD                                                                     ASCOPE                                                                          CHICAMA                                                                         40111035  15951     000075000097
D01847252       PIERS               VOL S               OCAS                          GUTIERREZ                     0047953162       EMPLEADO                                          044000463168000000000000                                                                                                                                                                LIBERTAD NRO 315                                                                                    00000000000000000L00000000                                                                                                    00                                                                                                                                                                                                        LA LIBERTAD                                                                     ASCOPE                                                                          SANTIAGO DE CAO                                                                 40111035  15951     000075000097
D01847255       ISAMAR              VICTORIA            RAMIREZ                       ROJAS                         0072708364       EMPLEADO                                          000000000000001985366985                                                                                                                                                                4 LT 30                                                                                             00000000000000000L00000000                                                                                                    00                                                                                                                                                                                                        LA LIBERTAD                                                                     TRUJILLO                                                                        TRUJILLO                                                                        40111035  15951     000075000097
D01847256       OSCAR               ORLANDO             VASQUEZ                       CARRASCO                      0047453508       EMPLEADO                                          000000000000001978448750                                                                                                                                                                ARICA MZ J LT 15                                                                                    00000000000000000L00000000                                                                                                    00                                                                                                                                                                                                        LAMBAYEQUE                                                                      CHICLAYO                                                                        CHICLAYO                                                                        40111035  19469     000075000097
D01847257       RICARDO             MANUEL              BENITES                       HORNA                         0071405361       EMPLEADO                                          000000000000001949297161                                                                                                                                                                WIRACOCHA NRO 1001 SECT RIO SECO                                                                    00000000000000000L00000000                                                                                                    00                                                                                                                                                                                                        LA LIBERTAD                                                                     TRUJILLO                                                                        EL PORVENIR                                                                     40111035  15951     000075000097
D01847258       JAVIER                                  VALENCIA                      CONDORI                       0070204045       EMPLEADO                                          000000000000000000000000                                                                                                                                                                P LT 25                                                                                             00000000000000000L00000000                                                                                                    00                                                                                                                                                                                                        LIMA                                                                            LIMA                                                                            VILLA EL SALVADOR                                                               40111035  18422     000085000097
D01847260       JORGE               LUIS                MENDOZA                       BERMUDEZ                      0080396679       EMPLEADO                                          001005204414000000000000                                                                                                                                                                24 DE ENERO NRO 625                                                                                 00100222324700000L150131032 DE MAYO NRO 1137                                                                                  01ORRANTIA                                                                                                                                                                                                LIMA                                                                            LIMA                                                                            COMAS                                                                           41798511  10920     000150000128
D01847261       IVAN                                    YOVERA                        CHUZON                        0047229460       EMPLEADO                                          000000000000001973818658                                                                                                                                                                SAN FRANCISCO NRO 717                                                                               00000000000000000L00000000                                                                                                    00                                                                                                                                                                                                        LAMBAYEQUE                                                                      LAMBAYEQUE                                                                      OLMOS                                                                           40111035  19469     000075000097
D01847262       KEVIN               ERICK               VASQUEZ                       ROSALES                       0072947802       EMPLEADO                                          000000000000001948134948                                                                                                                                                                ORBEGOSO NRO 215                                                                                    00000000000000000L00000000                                                                                                    00                                                                                                                                                                                                        LA LIBERTAD                                                                     ASCOPE                                                                          SANTIAGO DE CAO                                                                 40111035  15951     000075000097
D01847263       EDWARD              LEONARDO            AYALA                         CRUZ                          0046982646       EMPLEADO                                          000000000000001968979839                                                                                                                                                                A 16                                                                                                00000000000000000L00000000                                                                                                    00                                                                                                                                                                                                        PIURA                                                                           TALARA                                                                          PARIŃAS                                                                         07247898  18928     000075000097
D01847267       ESTEFANIA           GISSELA             RUIZ                          ULLOA                         0047802799       EMPLEADO                                          000000000000001943372353                                                                                                                                                                REAL NRO 118 SECTOR CARTAVIO                                                                        00000000000000000L00000000                                                                                                    00                                                                                                                                                                                                        LA LIBERTAD                                                                     ASCOPE                                                                          SANTIAGO DE CAO                                                                 40111035  15951     000075000097
D01847269       YEPSON              MAXIMILIANO         VICENTE                       ACARO                         0046833547       EMPLEADO                                          000000000000001948918840                                                                                                                                                                WINCHONSON MZ 20 LT 40 2DO SECTOR                                                                   00000000000000000L00000000                                                                                                    00                                                                                                                                                                                                        PIURA                                                                           PIURA                                                                           CASTILLA                                                                        40111035  15951     000075000097
D01847271       CARLOS              EDUARDO             PORRAS                        SILVA                         0070874676       EMPLEADO                                          073000678313000000000000                                                                                                                                                                PUERTO ANTIGUO NRO 208                                                                              00000000000000000L00000000                                                                                                    00                                                                                                                                                                                                        PIURA                                                                           TALARA                                                                          LOS ORGANOS                                                                     07247898  18928     000075000097
D01847272       ELVIS               FREDY               LEZAMA                        NAVES                         0047162428       EMPLEADO                                          000000000000001963537332                                                                                                                                                                13 DE ENERO NRO 513                                                                                 00000000000000000L00000000                                                                                                    00                                                                                                                                                                                                        LA LIBERTAD                                                                     TRUJILLO                                                                        FLORENCIA DE MORA                                                               40111035  15951     000075000097
D01847273       SHEYLA              JAZMIN              PEŃA                          RODRIGUEZ                     0048116654       EMPLEADO                                          000000000000000000000000                                                                                                                                                                LOS CONQUISTADORES MZ X  LT 11                                                                      00000000000000000L00000000                                                                                                    00                                                                                                                                                                                                        LIMA                                                                            LIMA                                                                            SAN JUAN DE MIRAFLORES                                                          41798511  15952     000085000128
D01847274       JOSE                LUIS                VALENCIA                      CERNA                         0046498395       EMPLEADO                                          000000000000001944308706                                                                                                                                                                A LT 10                                                                                             00000000000000000L00000000                                                                                                    00                                                                                                                                                                                                        LA LIBERTAD                                                                     SANTIAGO DE CHUCO                                                               CACHICADAN                                                                      40111035  15951     000075000097
D01847275       PABLO               ELIAS               RUMICHE                       LALUPU                        0047063178       EMPLEADO                                          073000517664000000000000                                                                                                                                                                B LT 03                                                                                             00000000000000000L00000000                                                                                                    00                                                                                                                                                                                                        PIURA                                                                           TALARA                                                                          PARIŃAS                                                                         07247898  18928     000075000097
D01847276       RICARDO             DAVID               RUIZ                          ESPINOZA                      0047700123       EMPLEADO                                          000000000000001044402555                                                                                                                                                                MARIANO LECHUGA NRO 782                                                                             00000000000000000L00000000                                                                                                    00                                                                                                                                                                                                        LA LIBERTAD                                                                     TRUJILLO                                                                        EL PORVENIR                                                                     40111035  15951     000075000097
D01847277       MARTHA              HILDA               CHANG                         BARRENO                       0025694751       EMPLEADO                                          000000000000001988429522                                                                                                                                                                C LT 19                                                                                             00100226573900000L15013003AVIACION NRO 3331 DPTO 301                                                                          00                                                                                                                                                                                                        CALLAO                                                                          CALLAO                                                                          VENTANILLA                                                                      08344110  18157     000075000097
D01847278       CRISTIAN            MARTIN              GOYZUETA                      ARLES                         0075829851       EMPLEADO                                          000000000000001994234950                                                                                                                                                                LAS GAVIOTAS NRO 2110 E-4 DPTO 504                                                                  00000000000000000L00000000                                                                                                    00                                                                                                                                                                                                        LIMA                                                                            LIMA                                                                            SANTIAGO DE SURCO                                                               41798511  15952     000085000128
D01847279       BELISARIO           ANTONIO             QUISPE                        YAURI                         0042058558       EMPLEADO                                          000000000000001980737370                                                                                                                                                                201 LT 20                                                                                           00000000000000000L00000000                                                                                                    00                                                                                                                                                                                                        LIMA                                                                            LIMA                                                                            LOS OLIVOS                                                                      40111035  15951     000085000097
D01847280       RICHELL             RODWIN              JIMENEZ                       SEGURA                        0072085246       EMPLEADO                                          000000000000001965943233                                                                                                                                                                RICARDO PALMA NRO 731                                                                               00000000000000000L00000000                                                                                                    00                                                                                                                                                                                                        LA LIBERTAD                                                                     PACASMAYO                                                                       PACASMAYO                                                                       40111035  15951     000075000097
D01847281       REYDER              JOSE                QUINDE                        VALENCIA                      0047449525       EMPLEADO                                          000000000000001968089146                                                                                                                                                                B LT 1                                                                                              00000000000000000L00000000                                                                                                    00                                                                                                                                                                                                        PIURA                                                                           AYABACA                                                                         JILILI                                                                          07247898  18928     000075000097
D01847283       EMILIN              LUCIA               HUMPPIRE                      CARHUAPUMA                    0046557979       EMPLEADO                                          001004822978000000000000                                                                                                                                                                ALTILLO MZ B LT 7                                                                                   00000000000000000L15013102LAS BEGONIAS NRO 545                                                                                00                                                                                                                                                                                                        LIMA                                                                            LIMA                                                                            RIMAC                                                                           09997075  18763     000085000128
D01847284       DAVID               ENRIQUE             LINARES                       CALDERON                      0047252747       EMPLEADO                                          000000000000001949979053                                                                                                                                                                PROGRESO NRO 02516                                                                                  00000000000000000L00000000                                                                                                    00                                                                                                                                                                                                        LA LIBERTAD                                                                     ASCOPE                                                                          PAIJAN                                                                          40111035  15951     000075000097
D01847285       TANY                JEANPIERE           PUPUCHE                       RIOS                          0048331423       EMPLEADO                                          074000516950001976119693                                                                                                                                                                I LT 11                                                                                             00000000000000000L00000000                                                                                                    00                                                                                                                                                                                                        LAMBAYEQUE                                                                      CHICLAYO                                                                        CHICLAYO                                                                        07247898  18928     000075000097
D01847286       JORGE               LUIS DAVID          QUINO                         MIRANDA                       0073173251       EMPLEADO                                          001005221178001984753138                                                                                                                                                                CAJAMARCA NRO 269                                                                                   00000000000000000L00000000                                                                                                    00                                                                                                                                                                                                        LIMA                                                                            LIMA                                                                            INDEPENDENCIA                                                                   41798511  15952     000085000128
D01847288       ELIZABETH           JESSICA             PEŃA                          BERMUDEZ                      0040094286       EMPLEADO                                          000000000000000000000000                                                                                                                                                                JHON KENNEDY NRO 432                                                                                00000000000000000L15013102LAS BEGONIAS NRO 574                                                                                00                                                                                                                                                                                                        LIMA                                                                            LIMA                                                                            SAN MARTIN DE PORRES                                                            09997075  18763     000085000128
D01847289       LLARELY                                 MORI                          HIDALGO                       0072014095       EMPLEADO                                          000000000000001965631119                                                                                                                                                                S/N                                                                                                 00100226573900000L15013003AVIACION NRO 3331 DPTO 301                                                                          00                                                                                                                                                                                                        AMAZONAS                                                                        BONGARA                                                                         JAZAN                                                                           08344110  18157     000075000097
D01847291       YOLANDA             JACKELINE           MARIN                         DAVILA                        0072230945       EMPLEADO                                          076000358584001076358584                                                                                                                                                                AUGUSTO GIL NRO 192                                                                                 00000000000000000L00000000                                                                                                    00                                                                                                                                                                                                        CAJAMARCA                                                                       CELENDIN                                                                        CELENDIN                                                                        09336896  18696     000085000131
D01847292       CHRISTIAN           JUNIOR              AREVALO                       TERRONES                      0048010894       EMPLEADO                                          000000000000001971738492                                                                                                                                                                INDOAMERICA MZ C- 18 LT 14                                                                          00000000000000000L00000000                                                                                                    00                                                                                                                                                                                                        LA LIBERTAD                                                                     TRUJILLO                                                                        LA ESPERANZA                                                                    40111035  15951     000075000097
D01847293       JORDY               MARTIN              CUICAPUSA                     FLORES                        0070139360       EMPLEADO                                          000000000000001997282421                                                                                                                                                                D LT 01 GRUPO 5                                                                                     00000000000000000L00000000                                                                                                    00                                                                                                                                                                                                        LIMA                                                                            LIMA                                                                            SAN JUAN DE LURIGANCHO                                                          40111035  15951     000085000097
D01847294       FLOR                DE MARIA            CCORAHUA                      CORAHUA                       0044367072       EMPLEADO                                          000000000000001958913770                                                                                                                                                                B LT 9                                                                                              00000000000000000L15013102LAS BEGONIAS NRO 545                                                                                00                                                                                                                                                                                                        LIMA                                                                            LIMA                                                                            SANTA ANITA                                                                     09997075  18763     000085000128
D01847295       CLAUDIO             ALEXANDER           RODRIGUEZ                     MONCAYO                       0072625312       EMPLEADO                                          074000386525001978814007                                                                                                                                                                MIGUEL GRAU NRO 637                                                                                 00000000000000000L00000000                                                                                                    00                                                                                                                                                                                                        LAMBAYEQUE                                                                      LAMBAYEQUE                                                                      LAMBAYEQUE                                                                      07247898  18928     000075000097
D01847296       PILAR               MARIA               BARJA                         RODRIGUEZ                     0041114954       EMPLEADO                                          000000000000001993008571                                                                                                                                                                A LT 6                                                                                              00000000000000000L15013102LAS BEGONIAS NRO 574                                                                                00                                                                                                                                                                                                        LIMA                                                                            LIMA                                                                            PACHACAMAC                                                                      09997075  18763     000085000128
D01847297       MELCHORITA          YERALDINE           BENITES                       CASTILLO                      0045340644       EMPLEADO                                          000000000000001964122215                                                                                                                                                                C LT 2 SECTOR 3 GRUPO 22                                                                            00000000000000000L15014205C LT 2 SECTOR 3 GRUPO 22                                                                            05PARQUE INDUSTRIAL                                                                                                                                                                                       LIMA                                                                            LIMA                                                                            VILLA EL SALVADOR                                                               09997075  18763     000085000128
D01847301       ANA                 GABRIELA            ROJAS                         BIZARRO                       0074803905       EMPLEADO                                          000000000000001995729952                                                                                                                                                                161 A LT 2                                                                                          00000000000000000L00000000                                                                                                    00                                                                                                                                                                                                        LIMA                                                                            LIMA                                                                            VILLA MARIA DEL TRIUNFO                                                         21460537  19588     000085000184
D01847302       ROSSI               MIRELLA             ANCHANTE                      HUAMAN                        0010594408       EMPLEADO                                          001007215315001997147094                                                                                                                                                                U-1 LT 34                                                                                           00000000000000000L15013102LAS BEGONIAS NRO 574                                                                                00                                                                                                                                                                                                        LIMA                                                                            LIMA                                                                            VILLA EL SALVADOR                                                               09997075  18763     000085000128
D01847305       JEAN                PIERRE ANDRES       CERVANTES                     BERRU                         0073449192       EMPLEADO                                          000000000000000000000000                                                                                                                                                                LA CONCORDIA MZ 41 LT 19                                                                            00000000000000000L00000000                                                                                                    00                                                                                                                                                                                                        LIMA                                                                            LIMA                                                                            VILLA MARIA DEL TRIUNFO                                                         40111035  18422     000085000097
D01847306       LUIS                MIGUEL              ZEGARRA                       SILVA                         0046117690       EMPLEADO                                          000000000000001976676354                                                                                                                                                                AREQUIPA NRO 518                                                                                    00000000000000000L00000000                                                                                                    00                                                                                                                                                                                                        CAJAMARCA                                                                       CELENDIN                                                                        CELENDIN                                                                        09336896  18696     000085000131
D01847309       ROBERTO             RIGOBERTO           LEYVA                         VALENZUELA                    0072318392       EMPLEADO                                          000000000000001968907805                                                                                                                                                                F LT 3                                                                                              00000000000000000L00000000                                                                                                    00                                                                                                                                                                                                        LIMA                                                                            LIMA                                                                            PUENTE PIEDRA                                                                   21460537  19588     000085000184
D01847310       VIKY                ARACELY             DIAZ                          CHAVEZ                        0047406387       EMPLEADO                                          000000000000001988177804                                                                                                                                                                MARCELINO GONZALES NRO 941                                                                          00000000000000000L00000000                                                                                                    00                                                                                                                                                                                                        CAJAMARCA                                                                       CELENDIN                                                                        CELENDIN                                                                        09336896  18696     000086000131
D01847313       JONATHAN            EDUARDO             VILLEGAS                      CORDOVA                       0048175420       EMPLEADO                                          000000000000001968307040                                                                                                                                                                MZ D LT 10                                                                                          00000000000000000L00000000                                                                                                    00                                                                                                                                                                                                        PIURA                                                                           TALARA                                                                          PARIŃAS                                                                         07247898  18928     000075000097
D01847314       JACKIE                                  MINAYA                        CALLAŃAUPA                    0046136000       EMPLEADO                                          000000000000001991840345                                                                                                                                                                H LT 9                                                                                              00100611570000000L15013102LAS BEGONIAS NRO 545                                                                                00                                                                                                                                                                                                        LIMA                                                                            LIMA                                                                            CHORRILLOS                                                                      09997075  18763     000085000128
D01847315       ROBERT              HENRY               PEREYRA                       ROJAS                         0044637972       EMPLEADO                                          000000000000001976013040                                                                                                                                                                JOSE GALVEZ NRO 104                                                                                 00000000000000000L00000000                                                                                                    00                                                                                                                                                                                                        CAJAMARCA                                                                       CELENDIN                                                                        CELENDIN                                                                        09336896  18696     000085000131
D01847316       ANTHONNY            ADEMIR ADAO         PINTO                         MUŃOZ                         0070838959       EMPLEADO                                          000000000000000000000000                                                                                                                                                                ANTONIO MIROQUEZADA NRO 1372 INT 13                                                                 00100461068800000L1501200128 DE JULIO NRO 715                                                                                 00                                                                                                                                                                                                        LIMA                                                                            LIMA                                                                            LIMA                                                                            40031880  15165     000250000184
D01847317       ROBIN               PAUL                CARDOZA                       CORDOVA                       0046568808       EMPLEADO                                          000000000000001961714615                                                                                                                                                                A LT 10                                                                                             00000000000000000L00000000                                                                                                    00                                                                                                                                                                                                        LIMA                                                                            LIMA                                                                            VILLA EL SALVADOR                                                               40111035  18422     000085000097
D01847318       MARIA               BENITA              TOMQUIPA                      JUAREZ                        0080391363       EMPLEADO                                          000000000000001992623176                                                                                                                                                                6 MZ D3 LT 3                                                                                        00100611570000000L15013102LAS BEGONIAS NRO 545                                                                                00                                                                                                                                                                                                        LIMA                                                                            LIMA                                                                            SAN JUAN DE MIRAFLORES                                                          09997075  18763     000085000128
D01847319       EDITH               FRANCISCA           MONTES                        SALCEDO                       0041098549       EMPLEADO                                          001002806425000000000000                                                                                                                                                                J LT 8                                                                                              00000000000000000L15013102LAS BEGONIAS NRO 545                                                                                00                                                                                                                                                                                                        LIMA                                                                            LIMA                                                                            VILLA EL SALVADOR                                                               09997075  18763     000085000128
D01847320       KEVIN               IBRAHIM             MARTINEZ                      SOLORZANO                     0071272623       EMPLEADO                                          000000000000000000000000                                                                                                                                                                TACNA NRO 499                                                                                       00000000000000000L00000000                                                                                                    00                                                                                                                                                                                                        LIMA                                                                            LIMA                                                                            PUENTE PIEDRA                                                                   09387319  18908     000085000184
D01847321       LISSET              KATHERINE           CHIROQUE                      AREVALO                       0047260451       EMPLEADO                                          000000000000001950205031                                                                                                                                                                A LT 07                                                                                             00000000000000000L00000000                                                                                                    00                                                                                                                                                                                                        PIURA                                                                           TALARA                                                                          PARIŃAS                                                                         07247898  18928     000075000097
D01847322       JUAN                LUIS                QUISPE                        CAMACHO                       0070939287       EMPLEADO                                          000000000000000000000000                                                                                                                                                                D 1 LT 5                                                                                            00000000000000000L00000000                                                                                                    00                                                                                                                                                                                                        LIMA                                                                            LIMA                                                                            CHORRILLOS                                                                      40111035  18422     000085000097
D01847324       LIDIA                                   ESPINOZA                      TALAVERANO                    0041926493       EMPLEADO                                          001000003925001989833459                                                                                                                                                                VARGAS MACHUCA NRO 474                                                                              00000000000000000L15013102LAS BEGONIAS NRO 547                                                                                00                                                                                                                                                                                                        LIMA                                                                            LIMA                                                                            SANTA ANITA                                                                     09997075  18763     000085000128
D01847325       JHON                KENI                CONDEŃA                       CONDEŃA                       0047068381       EMPLEADO                                          000000000000000000000000                                                                                                                                                                A LT 4                                                                                              00100362060600000L15013703CARRETERA CENTRAL NRO 759                                                                           05ALT KM 5 CARRETERA CENTRAL                                                                                                                                                                              LIMA                                                                            LIMA                                                                            ATE                                                                             09387319  13281     000080000184
D01847328       MIGUEL              ANGEL               FERNANDEZ                     PANTA                         0047961140       EMPLEADO                                          000000000000001973035769                                                                                                                                                                G LT 12 ETAPA 2                                                                                     00000000000000000L00000000                                                                                                    00                                                                                                                                                                                                        PIURA                                                                           TALARA                                                                          PARIŃAS                                                                         07247898  18928     000075000097
D01847329       JOISI               IRENE               BAUTISTA                      ALAYO                         0044561056       EMPLEADO                                          000000000000001992275876                                                                                                                                                                ALMIRANTE MIGUEL GRAU NRO 156                                                                       00000000000000000L15013102LAS BEGONIAS NRO 574                                                                                00                                                                                                                                                                                                        LIMA                                                                            LIMA                                                                            SAN LUIS                                                                        09997075  18763     000085000128
D01847330       KATHERINNE          PAOLA               LALUPU                        ZAPATA                        0046511260       EMPLEADO                                          000000000000000000000000                                                                                                                                                                MARIANO MELGAR NRO 613                                                                              00100311503000000L15013702MINERIA NRO 130                                                                                     01LOS FICUS                                                                                                                                                                                               PIURA                                                                           PIURA                                                                           CASTILLA                                                                        07588608  13988     000150000187
D01847331       EDITH               PAOLA               GRIJALVA                      GONZALES                      0047722476       EMPLEADO                                          000000000000001954185205                                                                                                                                                                E LT 7                                                                                              00100611570000000L15013102LAS BEGONIAS NRO 545                                                                                00                                                                                                                                                                                                        LIMA                                                                            LIMA                                                                            VILLA EL SALVADOR                                                               09997075  18763     000085000128
D01847332       JUNIER                                  JACH                          GARCIA                        0046264924       EMPLEADO                                          000000000000001946378853                                                                                                                                                                GERONIMO BALAREZO NRO 301                                                                           00000000000000000L00000000                                                                                                    00                                                                                                                                                                                                        LIMA                                                                            LIMA                                                                            CHORRILLOS                                                                      40031880  15422     000085000184
D01847334       ELIZABETH           MIRIAM              MAYTA                         BACA                          0010130018       EMPLEADO                                          001003879212001951781739                                                                                                                                                                F LT 26                                                                                             00000000000000000L15013102LAS BEGONIAS NRO 574                                                                                00                                                                                                                                                                                                        LIMA                                                                            LIMA                                                                            SAN JUAN DE LURIGANCHO                                                          09997075  18763     000085000128
D01847335       EDWARD                                  DELGADO                       DIAZ                          0070775300       EMPLEADO                                          000000000000001973010398                                                                                                                                                                CANTO GRANDE NRO 4                                                                                  00000000000000000L00000000                                                                                                    00                                                                                                                                                                                                        LIMA                                                                            LIMA                                                                            SAN JUAN DE LURIGANCHO                                                          40031880  15422     000085000184
D01847336       DIANA               LUZ                 INCHE                         ATACHAGUA                     0046302015       EMPLEADO                                          000000000000001992622035                                                                                                                                                                J LT 14                                                                                             00000000000000000L15013102LAS BEGONIAS NRO 545                                                                                00                                                                                                                                                                                                        LIMA                                                                            LIMA                                                                            VILLA EL SALVADOR                                                               09997075  18763     000085000128
D01847337       JULIO                                   TUESTA                        ROJAS                         0040039053       EMPLEADO                                          000000000000000000000000                                                                                                                                                                L T 15                                                                                              00100311503000000L15013702MINERA NRO 130                                                                                      01LOS FICUS                                                                                                                                                                                               LIMA                                                                            LIMA                                                                            SAN JUAN DE MIRAFLORES                                                          07588608  13988     000350000187
D01847340       EDSON               RAFAEL              RAMOS                         ALEJANDRO                     0020042173       EMPLEADO                                          000000000000000000000000                                                                                                                                                                C LT 47                                                                                             00000000000000000L15013702MINERIA NRO 130                                                                                     01LOS FICUS                                                                                                                                                                                               LIMA                                                                            LIMA                                                                            ATE                                                                             07588608  13988     000350000187
D01847342       LUIS                ENRIQUE             ANGEL                         VARGAS                        0070071669       EMPLEADO                                          000000000000000000000000                                                                                                                                                                D LT 3 SECTOR 1 GRPO 21A                                                                            00000000000000000L15012203ALFREDO BENAVIDES NRO 1307                                                                          00                                                                                                                                                                                                        LIMA                                                                            LIMA                                                                            VILLA EL SALVADOR                                                               09138102  16304     000150000187
D01847345       GISSELY                                 ALVAREZ                       AGUILAR                       0045076500       EMPLEADO                                          000000000000001959505161                                                                                                                                                                LUIS ESPEJO NRO 921                                                                                 00100442100000000L15012201GRAL. MANUEL MENDIBURU NRO 1230 INT 102                                                             00                                                                                                                                                                                                        LIMA                                                                            LIMA                                                                            LA VICTORIA                                                                     40031880  01505     000175000184
D01847346       CARITO              MARIVEL             FERNANDEZ                     ALARCO                        0006618186       EMPLEADO                                          000000000000001976197106                                                                                                                                                                JUAN FANNINA NRO 389                                                                                00000000000000000L15013102LAS BEGONIAS NRO 574                                                                                00                                                                                                                                                                                                        LIMA                                                                            LIMA                                                                            BARRANCO                                                                        09997075  18763     000085000128
D01847347       PABLO               JACOB               ARICARA                       LAULATE                       0047460829       EMPLEADO                                          065000784213001995759244                                                                                                                                                                COMITE 22 DE JUNIO NRO 70                                                                           00000000000000000L00000000                                                                                                    00                                                                                                                                                                                                        LORETO                                                                          MAYNAS                                                                          SAN JUAN BAUTISTA                                                               40111035  19546     000075000187
D01847349       KARLA               KATHERINE           ZERPA                         SIGNIFICACION                 0047267675       EMPLEADO                                          000000000000001987770285                                                                                                                                                                OSCAR R BENAVIDES NRO 1598 DPTO 102 B                                                               00100311503000000L15013702MINERA NRO 130                                                                                      01LOS FICUS                                                                                                                                                                                               LIMA                                                                            LIMA                                                                            LIMA                                                                            07588608  13988     000150000187
D01847352       MELIZA                                  FLORIAN                       OSORIO                        0047728536       EMPLEADO                                          000000000000001979271854                                                                                                                                                                PANAMERICANA NORTE NRO 610                                                                          00100012389800000L15013102ROMA NRO 447 DPTO 102                                                                               00                                                                                                                                                                                                        LIMA                                                                            BARRANCA                                                                        SUPE PUERTO                                                                     00000012  03092     000090000400
D01847353       OLINDA                                  LADINO                        CHAMBILLA                     0040450652       EMPLEADO                                          000000000000001968829891                                                                                                                                                                L LT 20 SECTOR 6 GRUPO 4                                                                            00000000000000000L15013102LAS BEGONIAS NRO 574                                                                                00                                                                                                                                                                                                        LIMA                                                                            LIMA                                                                            VILLA EL SALVADOR                                                               09997075  18763     000085000128
D01847355       MIRTHA                                  BESARES                       DIAZ                          0048111912       EMPLEADO                                          000000000000001985842233                                                                                                                                                                GUTIERREZ NRO 16                                                                                    00100546006600000L15012202BOLIVAR NRO 227                                                                                     00                                                                                                                                                                                                        LIMA                                                                            BARRANCA                                                                        BARRANCA                                                                        00000012  03092     000090000400
D01847356       ABEL                LEON                PARRA                         CRISTOBAL                     0070881954       EMPLEADO                                          000000000000000000000000                                                                                                                                                                P LT 12                                                                                             00000000000000000L15010801COMUNICADAD INDUSTRIAL NRO 391                                                                      01LA VILLA                                                                                                                                                                                                LIMA                                                                            LIMA                                                                            VILLA EL SALVADOR                                                               09138102  16304     000150000187
D01847358       LUCIA               ESTEFANI            MATEO                         IDELFONSO                     0047221497       EMPLEADO                                          001003090640001957502149                                                                                                                                                                C LT 11                                                                                             00000000000000000L150140025 MZ A LT 6                                                                                         01LOS ALAMOS                                                                                                                                                                                              LIMA                                                                            LIMA                                                                            SAN JUAN DE LURIGANCHO                                                          07737457  19443     000100000097
