E183321082012                                                                                                                                                                                                                                                                                                                                                                                                                                                                                                                                                                                                                                                                                                                                                                                                                                                                                                                                                                                                                                                                                                                                                                                                                                                                                                                                                                                                                                                                                                                                                                                                                                                                                                                                                                                                                                                                                            
D01846717       20082012LEOCADIA                                QUISPE                        CASA FRANCA                   09121967FS0010641687       1141501011141501330214 MZ Y LT 37                                                                                       021RO DE JUNIO                                                                                                                                                                                            001997664833                                                                                20504039120EULEN DEL PERU DE SERVICIOS COMPLEMENTARIOS S.A.                                                                        15012003JAVIER PRADO OESTENRO 2340                                                                          00                                                                                                                                                                                                        001001111111DSSS            NNN S               000000000001140009000000000020082012NN00093NN0000000075000S42404     0000000000000000NSS18690       NLIMA                                                                            LIMA                                                                            SAN JUAN DE MIRAFLORES                                                          LIMA                                                                            LIMA                                                                            MAGDALENA DEL MAR                                                               EMPLEADO                                                                        PROFESIÓN U OCUPACIÓN NO ESPECIFICADA                                           OTROS SERVICIOS                                   0000020082012
D01846741       16082012RANDY               JEANPIERRE EDUARDO  REYES                         GONZALES                      14061993MS0070816872       11413020311413020802ANGEL Y JULIAN MOCAN MZ 9 LT 03                                                                     00                                                                                                                                                                                                        001990897307                                                                                00000000000                                                                                                                        00000000                                                                                                    00                                                                                                                                                                                                        000000000000ISSS            NNN S               000000000001140009000000000020082012NN00000NN0000000075000S34108     0000000000000000NSS18219       NLA LIBERTAD                                                                     ASCOPE                                                                          CASA GRANDE                                                                                                                                                                                                                                                                                                                     EMPLEADO                                                                        PROFESIÓN U OCUPACIÓN NO ESPECIFICADA                                                                                             0000016082012
D01847229       20082012KARINA              REBECA              CULLANCO                      ACHARTE                       09051988FS0045481358       11409040511411020705G LT 9                                                                                              01OSCAR R BENAVIDES II ETAPA ROSEDAL                                                                                                                                                                      001976664354KARIN_0988@HOTMAIL.COM                                                          00000000000                                                                                                                        00000000                                                                                                    00                                                                                                                                                                                                        000000000000ISSS            NNN1S               000000000001140009000000000021082012NN00000SN0000000085000S10839     0000000000000000NSS00339       NICA                                                                             CHINCHA                                                                         PUEBLO NUEVO                                                                                                                                                                                                                                                                                                                    EMPLEADO                                                                        PROFESIÓN U OCUPACIÓN NO ESPECIFICADA                                                                                             0000020082012
D01847231       21082012MARIA               ALEXANDRA           LUYO                          HUAMAN                        04051990FS0070435618       1141505011141505070128 DE JULIO NRO 778                                                                                 00                                                                                                                                                                                                        001991579930ALEXANDRA.LUYO@PUCP.PE                                                          00000000000                                                                                                                        00000000                                                                                                    00                                                                                                                                                                                                        000000000000ISSS            NNN1S               000000000001140009000000000021082012NN00000SN0000000085000S26035     0000000000000000NSS11755       NLIMA                                                                            CAŃETE                                                                          IMPERIAL                                                                                                                                                                                                                                                                                                                        EMPLEADO                                                                        PROFESIÓN U OCUPACIÓN NO ESPECIFICADA                                                                                             0000021082012
D01847235       20082012THANIA              BRIGITTE            BRUNO                         SUPO                          14061993FS0073123633       11420070111420070103A - 19                                                                                              02MICAELA BASTIDAS                                                                                                                                                                                        001969735437THANIA_LOVE13@HOTMAIL.COM                                                       00000000000                                                                                                                        00000000                                                                                                    00                                                                                                                                                                                                        000000000000ISSS            NNN1S               000000000001140009000000000021082012NN00000SN0000000075000S34572     0000000000000000NSS18928       NPIURA                                                                           TALARA                                                                          PARIŃAS                                                                                                                                                                                                                                                                                                                         EMPLEADO                                                                        PROFESIÓN U OCUPACIÓN NO ESPECIFICADA                                                                                             0000020082012
D01847237       20082012DEYBI               EDSON               STEELE                        NUNJAR                        28011989MS0045655802       11420070111420070103B-33                                                                                                01LOS NEGREIROS                                                                                                                                                                                           001980349882DEYBJ_FENIX@HOTMAIL.COM                                                         00000000000                                                                                                                        00000000                                                                                                    00                                                                                                                                                                                                        000000000000ISSS            NNN1S               000000000001140009000000000021082012NN00000SN0000000075000S34572     0000000000000000NSS18928       NPIURA                                                                           TALARA                                                                          PARIŃAS                                                                                                                                                                                                                                                                                                                         EMPLEADO                                                                        PROFESIÓN U OCUPACIÓN NO ESPECIFICADA                                                                                             0000020082012
D01847238       20082012DINA                ROSALIA             ROJAS                         CASTILLO                      23061994FS0070563356       11413061311413010502GUADALUPE VICTORIA NRO 701                                                                          02LA VERONICA                                                                                                                                                                                             001044290346DINABONITA_MAIL@HOTMAIL.COM                                                     00000000000                                                                                                                        00000000                                                                                                    00                                                                                                                                                                                                        000000000000ISSS            NNN S               000000000001140009000000000021082012NN00000NN0000000075000S31467     0000000000000000NSS15951       NLA LIBERTAD                                                                     TRUJILLO                                                                        LA ESPERANZA                                                                                                                                                                                                                                                                                                                    EMPLEADO                                                                        PROFESIÓN U OCUPACIÓN NO ESPECIFICADA                                                                                             0000020082012
D01847240       20082012FRANCISCA           MARIBEL             SIFUENTES                     CASTILLO                      21081990FS0046510677       11413100111413010105K LT 12                                                                                             01COVICOSTI                                                                                                                                                                                               001949979053SC_MARY_1015@HOTMAIL.COM                                                        00000000000                                                                                                                        00000000                                                                                                    00                                                                                                                                                                                                        000000000000ISSS            NNN S               000000000001140009000000000021082012NN00000NN0000000075000S31467     0000000000000000NSS15951       NLA LIBERTAD                                                                     TRUJILLO                                                                        TRUJILLO                                                                                                                                                                                                                                                                                                                        EMPLEADO                                                                        PROFESIÓN U OCUPACIÓN NO ESPECIFICADA                                                                                             0000020082012
D01847241       20082012BERTHA              HAYDEE              COSICHE                       RIVERA                        17101990FS0046583478       11415013311415014205F9 LT 31                                                                                            02PRINCIPE DE ASTURIAS                                                                                                                                                                                    001001111111                                                                                00000000000                                                                                                                        00000000                                                                                                    00                                                                                                                                                                                                        000000000000ISSS            NNN S               000000000001140009000000000021082012NN00000NN0000000085000S41824     0000000000000000NSS18422       NLIMA                                                                            LIMA                                                                            VILLA EL SALVADOR                                                                                                                                                                                                                                                                                                               EMPLEADO                                                                        PROFESIÓN U OCUPACIÓN NO ESPECIFICADA                                                                                             0000020082012
D01847242       20082012KATHERINE           MELISSA             ROBLES                        ZAVALETA                      19081991FS0047253778       11413020111413020805G LT 05                                                                                             023 DE OCTUBRE ANEXO ROMA                                                                                                                                                                                 001941996196                                                                                00000000000                                                                                                                        00000000                                                                                                    00                                                                                                                                                                                                        000000000000ISSS            NNN S               000000000001140009000000000021082012NN00000NN0000000075000S31467     0000000000000000NSS15951       NLA LIBERTAD                                                                     ASCOPE                                                                          CASA GRANDE                                                                                                                                                                                                                                                                                                                     EMPLEADO                                                                        PROFESIÓN U OCUPACIÓN NO ESPECIFICADA                                                                                             0000020082012
D01847243       20082012NELL                DARWIN              REMIGIO                       ANGELDONIS                    07101990MS0047644649       11420070111420070103D1-14                                                                                               02NUEVA ESPERANZA                                                                                                                                                                                         001969516594RENE_710@HOTMAIL.COM                                                            00000000000                                                                                                                        00000000                                                                                                    00                                                                                                                                                                                                        000000000000ISSS            NNN1S               000000000001140009000000000021082012NN00000SN0000000075000S34572     0000000000000000NSS18928       NPIURA                                                                           TALARA                                                                          PARIŃAS                                                                                                                                                                                                                                                                                                                         EMPLEADO                                                                        PROFESIÓN U OCUPACIÓN NO ESPECIFICADA                                                                                             0000020082012
D01847244       20082012JENNY               ISABEL              MUŃOZ                         GUTIERREZ                     22051993FS0047745221       11413010411413010402JUAN VELASCO ALVARADO MZ 2 LT 21                                                                    0701                                                                                                                                                                                                      001949426757JENNY_M1905@HOTMAIL.COM                                                         00000000000                                                                                                                        00000000                                                                                                    00                                                                                                                                                                                                        000000000000ISSS            NNN S               000000000001140009000000000021082012NN00000NN0000000075000S31467     0000000000000000NSS15951       NLA LIBERTAD                                                                     TRUJILLO                                                                        HUANCHACO                                                                                                                                                                                                                                                                                                                       EMPLEADO                                                                        PROFESIÓN U OCUPACIÓN NO ESPECIFICADA                                                                                             0000020082012
D01847245       17082012RONALD              PAUL                JARAMILLO                     VICENTE                       28081993MS0047989808       11413010111413010105X3 LT 22                                                                                            01COVICORTI                                                                                                                                                                                               001948774247                                                                                00000000000                                                                                                                        00000000                                                                                                    00                                                                                                                                                                                                        000000000000ISSS            NNN S               000000000001140009000000000021082012NN00000NN0000000075000S31467     0000000000000000NSS15951       NLA LIBERTAD                                                                     TRUJILLO                                                                        TRUJILLO                                                                                                                                                                                                                                                                                                                        EMPLEADO                                                                        PROFESIÓN U OCUPACIÓN NO ESPECIFICADA                                                                                             0000017082012
D01847247       20082012YOLI                ROSMERI             CONTRERAS                     RUIZ                          14101992FS0070032132       11406020411406020401GASPAR MANTILLA NRO 100                                                                             00                                                                                                                                                                                                        001975062472YOLY_LOVE_92@HOTMAIL.COM                                                        00000000000                                                                                                                        00000000                                                                                                    00                                                                                                                                                                                                        000000000000ISSS            NNN S               000000000001140009000000000021082012NN00000NN0000000075000S31467     0000000000000000NSS15951       NCAJAMARCA                                                                       CAJABAMBA                                                                       SITACOCHA                                                                                                                                                                                                                                                                                                                       EMPLEADO                                                                        PROFESIÓN U OCUPACIÓN NO ESPECIFICADA                                                                                             0000020082012
D01847248       20082012MICHAEL             STEVEN              FABIAN                        CORONEL                       15061994MS0076577484       11413010611413010603TRUJILLO NRO 16                                                                                     01LAREDO                                                                                                                                                                                                  001044446360FABIIAM.XD94@HOTMAIL.COM                                                        00000000000                                                                                                                        00000000                                                                                                    00                                                                                                                                                                                                        000000000000ISSS            NNN S               000000000001140009000000000021082012NN00000NN0000000075000S31467     0000000000000000NSS15951       NLA LIBERTAD                                                                     TRUJILLO                                                                        LAREDO                                                                                                                                                                                                                                                                                                                          EMPLEADO                                                                        PROFESIÓN U OCUPACIÓN NO ESPECIFICADA                                                                                             0000020082012
D01847249       20082012JHEYSON             MANUEL              RIVERA                        MONTERO                       29011994MS0048092663       11420070111420070102BARRIO ESPECIALISTA NRO 09                                                                          02LUCY DE VILLANUEVA                                                                                                                                                                                      001942003628TORINO_94.MANUEL@HOTMAIL.COM                                                    00000000000                                                                                                                        00000000                                                                                                    00                                                                                                                                                                                                        000000000000ISSS            NNN1S               000000000001140009000000000021082012NN00000SN0000000075000S34572     0000000000000000NSS18928       NPIURA                                                                           TALARA                                                                          PARIŃAS                                                                                                                                                                                                                                                                                                                         EMPLEADO                                                                        PROFESIÓN U OCUPACIÓN NO ESPECIFICADA                                                                                             0000020082012
D01847250       20082012ELIANA              FIORELLA            SUPO                          ROSALES                       15051993FS0073220673       11420070111420070102JORGE BASADRE NRO E-27                                                                              022 DE FEBRERO                                                                                                                                                                                            073000000969ELIANA_FIORE@HOTMAIL.COM                                                        00000000000                                                                                                                        00000000                                                                                                    00                                                                                                                                                                                                        000000000000ISSS            NNN1S               000000000001140009000000000021082012NN00000SN0000000075000S34572     0000000000000000NSS18928       NPIURA                                                                           TALARA                                                                          PARIŃAS                                                                                                                                                                                                                                                                                                                         EMPLEADO                                                                        PROFESIÓN U OCUPACIÓN NO ESPECIFICADA                                                                                             0000020082012
D01847251       20082012FIORELLA            DEL CARMEN          SANCHEZ                       ASMAT                         20021993FS0047898890       11413020211413020203PROGRESO NRO 967                                                                                    00                                                                                                                                                                                                        001959012780FIORY_FOREVER@HOTMAIL.COM                                                       00000000000                                                                                                                        00000000                                                                                                    00                                                                                                                                                                                                        000000000000ISSS            NNN S               000000000001140009000000000021082012NN00000NN0000000075000S31467     0000000000000000NSS15951       NLA LIBERTAD                                                                     ASCOPE                                                                          CHICAMA                                                                                                                                                                                                                                                                                                                         EMPLEADO                                                                        PROFESIÓN U OCUPACIÓN NO ESPECIFICADA                                                                                             0000020082012
D01847252       17082012PIERS               VOL S               OCAS                          GUTIERREZ                     08101993MS0047953162       11414010111413020702LIBERTAD NRO 315                                                                                    07STGO DE CAO                                                                                                                                                                                             044000463168PIERS_OCAS@HOTMAIL.COM                                                          00000000000                                                                                                                        00000000                                                                                                    00                                                                                                                                                                                                        000000000000ISSS            NNN S               000000000001140009000000000021082012NN00000NN0000000075000S31467     0000000000000000NSS15951       NLA LIBERTAD                                                                     ASCOPE                                                                          SANTIAGO DE CAO                                                                                                                                                                                                                                                                                                                 EMPLEADO                                                                        PROFESIÓN U OCUPACIÓN NO ESPECIFICADA                                                                                             0000017082012
D01847255       20082012ISAMAR              VICTORIA            RAMIREZ                       ROJAS                         26021991FS0072708364       114060109114130101054 LT 30                                                                                             01NUEVO HORIZONTE                                                                                                                                                                                         001985366985ISAMAR_2_6@HOTMAIL.COM                                                          00000000000                                                                                                                        00000000                                                                                                    00                                                                                                                                                                                                        000000000000ISSS            NNN S               000000000001140009000000000021082012NN00000NN0000000075000S31467     0000000000000000NSS15951       NLA LIBERTAD                                                                     TRUJILLO                                                                        TRUJILLO                                                                                                                                                                                                                                                                                                                        EMPLEADO                                                                        PROFESIÓN U OCUPACIÓN NO ESPECIFICADA                                                                                             0000020082012
D01847256       21082012OSCAR               ORLANDO             VASQUEZ                       CARRASCO                      12121990MS0047453508       11420070111414010103ARICA MZ J LT 15                                                                                    03JORGE CHAVEZ                                                                                                                                                                                            001978448750                                                                                00000000000                                                                                                                        00000000                                                                                                    00                                                                                                                                                                                                        000000000000ISSS            NNN S               000000000001140009000000000021082012NN00000NN0000000075000S34493     0000000000000000NSS19469       NLAMBAYEQUE                                                                      CHICLAYO                                                                        CHICLAYO                                                                                                                                                                                                                                                                                                                        EMPLEADO                                                                        PROFESIÓN U OCUPACIÓN NO ESPECIFICADA                                                                                             0000021082012
D01847257       20082012RICARDO             MANUEL              BENITES                       HORNA                         02101992MS0071405361       11413010211413010201WIRACOCHA NRO 1001                                                                                  07RIO SECO                                                                                                                                                                                                001949297161RICK_AL007@HOTMAIL.COM                                                          00000000000                                                                                                                        00000000                                                                                                    00                                                                                                                                                                                                        000000000000ISSS            NNN S               000000000001140009000000000021082012NN00000NN0000000075000S31467     0000000000000000NSS15951       NLA LIBERTAD                                                                     TRUJILLO                                                                        EL PORVENIR                                                                                                                                                                                                                                                                                                                     EMPLEADO                                                                        PROFESIÓN U OCUPACIÓN NO ESPECIFICADA                                                                                             0000020082012
D01847258       20082012JAVIER                                  VALENCIA                      CONDORI                       23061993MS0070204045       11414010111415014205P LT 25                                                                                             02MAX UHLE                                                                                                                                                                                                001001111111                                                                                00000000000                                                                                                                        00000000                                                                                                    00                                                                                                                                                                                                        000000000000ISSS            NNN S               000000000001140009000000000021082012NN00000NN0000000085000S41824     0000000000000000NSS18422       NLIMA                                                                            LIMA                                                                            VILLA EL SALVADOR                                                                                                                                                                                                                                                                                                               EMPLEADO                                                                        PROFESIÓN U OCUPACIÓN NO ESPECIFICADA                                                                                             0000020082012
D01847260       20082012JORGE               LUIS                MENDOZA                       BERMUDEZ                      01091967MS0080396679       1141501011141501100324 DE ENERO NRO 625                                                                                 00                                                                                                                                                                                                        001005204414                                                                                20536294661BRAJA CONSTRUCTORA INMOBILIARIA SAC                                                                                     150131032 DE MAYONRO 1137                                                                                   01ORRANTIA                                                                                                                                                                                                001002223247DSSS            NNN S               000000000001140009000000000021082012NN00093NN0000000150000S31910     0000000000000000NSS10920       NLIMA                                                                            LIMA                                                                            COMAS                                                                           LIMA                                                                            LIMA                                                                            SAN ISIDRO                                                                      EMPLEADO                                                                        PROFESIÓN U OCUPACIÓN NO ESPECIFICADA                                           OTROS SERVICIOS                                   0000020082012
D01847261       21082012IVAN                                    YOVERA                        CHUZON                        26121991MS0047229460       11420070111414030802SAN FRANCISCO NRO 717                                                                               00                                                                                                                                                                                                        001973818658                                                                                00000000000                                                                                                                        00000000                                                                                                    00                                                                                                                                                                                                        000000000000ISSS            NNN S               000000000001140009000000000021082012NN00000NN0000000075000S34493     0000000000000000NSS19469       NLAMBAYEQUE                                                                      LAMBAYEQUE                                                                      OLMOS                                                                                                                                                                                                                                                                                                                           EMPLEADO                                                                        PROFESIÓN U OCUPACIÓN NO ESPECIFICADA                                                                                             0000021082012
D01847262       20082012KEVIN               ERICK               VASQUEZ                       ROSALES                       20081991MS0072947802       11413020311413020702ORBEGOSO NRO 215                                                                                    01PUEBLO CHIQUITO Y PUEBLO CHIQUITOY                                                                                                                                                                      001948134948                                                                                00000000000                                                                                                                        00000000                                                                                                    00                                                                                                                                                                                                        000000000000ISSS            NNN S               000000000001140009000000000021082012NN00000NN0000000075000S31467     0000000000000000NSS15951       NLA LIBERTAD                                                                     ASCOPE                                                                          SANTIAGO DE CAO                                                                                                                                                                                                                                                                                                                 EMPLEADO                                                                        PROFESIÓN U OCUPACIÓN NO ESPECIFICADA                                                                                             0000020082012
D01847263       20082012EDWARD              LEONARDO            AYALA                         CRUZ                          02031991MS0046982646       11420070111420070103A - 16                                                                                              02JOSE A QUIŃONEZ                                                                                                                                                                                         001968979839GASERGE_2012@HOTMAIL.COM                                                        00000000000                                                                                                                        00000000                                                                                                    00                                                                                                                                                                                                        000000000000ISSS            NNN S               000000000001140009000000000021082012NN00000NN0000000075000S34572     0000000000000000NSS18928       NPIURA                                                                           TALARA                                                                          PARIŃAS                                                                                                                                                                                                                                                                                                                         EMPLEADO                                                                        PROFESIÓN U OCUPACIÓN NO ESPECIFICADA                                                                                             0000020082012
D01847267       20082012ESTEFANIA           GISSELA             RUIZ                          ULLOA                         24071992FS0047802799       11413020711413020701REAL NRO 118                                                                                        07CARTAVIO                                                                                                                                                                                                001943372353ESTEFANIA.RUIZ.U@HOTMAIL.COM                                                    00000000000                                                                                                                        00000000                                                                                                    00                                                                                                                                                                                                        000000000000ISSS            NNN S               000000000001140009000000000021082012NN00000NN0000000075000S31467     0000000000000000NSS15951       NLA LIBERTAD                                                                     ASCOPE                                                                          SANTIAGO DE CAO                                                                                                                                                                                                                                                                                                                 EMPLEADO                                                                        PROFESIÓN U OCUPACIÓN NO ESPECIFICADA                                                                                             0000020082012
D01847269       20082012YEPSON              MAXIMILIANO         VICENTE                       ACARO                         25021992MS0046833547       11420070111420010401WINCHONSON MZ 20 LT 40 2DO SECTOR                                                                   01LA ESPERANZA                                                                                                                                                                                            001948918840                                                                                00000000000                                                                                                                        00000000                                                                                                    00                                                                                                                                                                                                        000000000000ISSS            NNN S               000000000001140009000000000021082012NN00000NN0000000075000S31467     0000000000000000NSS15951       NPIURA                                                                           PIURA                                                                           CASTILLA                                                                                                                                                                                                                                                                                                                        EMPLEADO                                                                        PROFESIÓN U OCUPACIÓN NO ESPECIFICADA                                                                                             0000020082012
D01847271       20082012CARLOS              EDUARDO             PORRAS                        SILVA                         15011993MS0070874676       11420070511420070502PUERTO ANTIGUO NRO 208                                                                              00                                                                                                                                                                                                        073000678313                                                                                00000000000                                                                                                                        00000000                                                                                                    00                                                                                                                                                                                                        000000000000ISSS            NNN S               000000000001140009000000000021082012NN00000NN0000000075000S34572     0000000000000000NSS18928       NPIURA                                                                           TALARA                                                                          LOS ORGANOS                                                                                                                                                                                                                                                                                                                     EMPLEADO                                                                        PROFESIÓN U OCUPACIÓN NO ESPECIFICADA                                                                                             0000020082012
D01847272       20082012ELVIS               FREDY               LEZAMA                        NAVES                         30071992MS0047162428       1141301011141301030213 DE ENERO NRO 513                                                                                 00                                                                                                                                                                                                        001963537332                                                                                00000000000                                                                                                                        00000000                                                                                                    00                                                                                                                                                                                                        000000000000ISSS            NNN S               000000000001140009000000000021082012NN00000NN0000000075000S31467     0000000000000000NSS15951       NLA LIBERTAD                                                                     TRUJILLO                                                                        FLORENCIA DE MORA                                                                                                                                                                                                                                                                                                               EMPLEADO                                                                        PROFESIÓN U OCUPACIÓN NO ESPECIFICADA                                                                                             0000020082012
D01847273       21082012SHEYLA              JAZMIN              PEŃA                          RODRIGUEZ                     14021993FS0048116654       11415011311415013302LOS CONQUISTADORES MZ X  LT 11                                                                      05ALT PASAJE JESUS PODEROSO                                                                                                                                                                               001001111111SHEYLITA_J93@HOTMAIL.COM                                                        00000000000                                                                                                                        00000000                                                                                                    00                                                                                                                                                                                                        000000000000ISSS            NNN S               000000000001140009000000000021082012NN00000NN0000000085000S38246     0000000000000000NSS15952       NLIMA                                                                            LIMA                                                                            SAN JUAN DE MIRAFLORES                                                                                                                                                                                                                                                                                                          EMPLEADO                                                                        PROFESIÓN U OCUPACIÓN NO ESPECIFICADA                                                                                             0000021082012
D01847274       20082012JOSE                LUIS                VALENCIA                      CERNA                         31081990MS0046498395       11413020511413100305A LT 10                                                                                             12TRES RIOS                                                                                                                                                                                               001944308706                                                                                00000000000                                                                                                                        00000000                                                                                                    00                                                                                                                                                                                                        000000000000ISSS            NNN S               000000000001140009000000000021082012NN00000NN0000000075000S31467     0000000000000000NSS15951       NLA LIBERTAD                                                                     SANTIAGO DE CHUCO                                                               CACHICADAN                                                                                                                                                                                                                                                                                                                      EMPLEADO                                                                        PROFESIÓN U OCUPACIÓN NO ESPECIFICADA                                                                                             0000020082012
D01847275       20082012PABLO               ELIAS               RUMICHE                       LALUPU                        30081991MS0047063178       11414010111420070105B LT 03                                                                                             02LAS PALMERAS                                                                                                                                                                                            073000517664VIRGO_LOVE_236@HOTMAIL.COM                                                      00000000000                                                                                                                        00000000                                                                                                    00                                                                                                                                                                                                        000000000000ISSS            NNN1S               000000000001140009000000000021082012NN00000SN0000000075000S34572     0000000000000000NSS18928       NPIURA                                                                           TALARA                                                                          PARIŃAS                                                                                                                                                                                                                                                                                                                         EMPLEADO                                                                        PROFESIÓN U OCUPACIÓN NO ESPECIFICADA                                                                                             0000020082012
D01847276       20082012RICARDO             DAVID               RUIZ                          ESPINOZA                      15041993MS0047700123       11420070111413010202MARIANO LECHUGA NRO 782                                                                             00                                                                                                                                                                                                        001044402555                                                                                00000000000                                                                                                                        00000000                                                                                                    00                                                                                                                                                                                                        000000000000ISSS            NNN S               000000000001140009000000000021082012NN00000NN0000000075000S31467     0000000000000000NSS15951       NLA LIBERTAD                                                                     TRUJILLO                                                                        EL PORVENIR                                                                                                                                                                                                                                                                                                                     EMPLEADO                                                                        PROFESIÓN U OCUPACIÓN NO ESPECIFICADA                                                                                             0000020082012
D01847277       20082012MARTHA              HILDA               CHANG                         BARRENO                       18071963FS0025694751       11415013511407010605C LT 19                                                                                             01PROCERES                                                                                                                                                                                                001988429522                                                                                20492687180SERPAEM S.A.C.                                                                                                          15013003AVIACIONNRO 3331 DPTO 301                                                                           00                                                                                                                                                                                                        001002265739DSSS            NNN S               000000000001140009000000000021082012NN00093NN0000000075000S41539     0000000000000000NSS18157       NCALLAO                                                                          CALLAO                                                                          VENTANILLA                                                                      LIMA                                                                            LIMA                                                                            SAN BORJA                                                                       EMPLEADO                                                                        PROFESIÓN U OCUPACIÓN NO ESPECIFICADA                                           OTROS SERVICIOS                                   0000020082012
D01847278       21082012CRISTIAN            MARTIN              GOYZUETA                      ARLES                         28031994MS0075829851       11415012211415014003LAS GAVIOTAS NRO 2110 E-4 DPTO 504                                                                  05COND PARQUES DE SURCO III                                                                                                                                                                               001994234950CRISTIAN462_7@HOTMAIL.COM                                                       00000000000                                                                                                                        00000000                                                                                                    00                                                                                                                                                                                                        000000000000ISSS            NNN1S               000000000001140009000000000021082012NN00000SN0000000085000S38246     0000000000000000NSS15952       NLIMA                                                                            LIMA                                                                            SANTIAGO DE SURCO                                                                                                                                                                                                                                                                                                               EMPLEADO                                                                        PROFESIÓN U OCUPACIÓN NO ESPECIFICADA                                                                                             0000021082012
D01847279       21082012BELISARIO           ANTONIO             QUISPE                        YAURI                         14081983MS0042058558       11415010111415011705201 LT 20                                                                                           02SAN MARTIN DE PORRES                                                                                                                                                                                    001980737370LOGANLOR18@HOTMAIL.COM                                                          00000000000                                                                                                                        00000000                                                                                                    00                                                                                                                                                                                                        000000000000ISSS            NNN S               000000000001140009000000000021082012NN00000NN0000000085000S31467     0000000000000000NSS15951       NLIMA                                                                            LIMA                                                                            LOS OLIVOS                                                                                                                                                                                                                                                                                                                      EMPLEADO                                                                        PROFESIÓN U OCUPACIÓN NO ESPECIFICADA                                                                                             0000021082012
D01847280       20082012RICHELL             RODWIN              JIMENEZ                       SEGURA                        06021992MS0072085246       11413010111413070402RICARDO PALMA NRO 731                                                                               00                                                                                                                                                                                                        001965943233RICHELSEGURA@HOTMAIL.COM                                                        00000000000                                                                                                                        00000000                                                                                                    00                                                                                                                                                                                                        000000000000ISSS            NNN S               000000000001140009000000000021082012NN00000NN0000000075000S31467     0000000000000000NSS15951       NLA LIBERTAD                                                                     PACASMAYO                                                                       PACASMAYO                                                                                                                                                                                                                                                                                                                       EMPLEADO                                                                        PROFESIÓN U OCUPACIÓN NO ESPECIFICADA                                                                                             0000020082012
D01847281       20082012REYDER              JOSE                QUINDE                        VALENCIA                      20091992MS0047449525       11414010111420020305B LT 1                                                                                              12LIHUASNIO                                                                                                                                                                                               001968089146                                                                                00000000000                                                                                                                        00000000                                                                                                    00                                                                                                                                                                                                        000000000000ISSS            NNN S               000000000001140009000000000021082012NN00000NN0000000075000S34572     0000000000000000NSS18928       NPIURA                                                                           AYABACA                                                                         JILILI                                                                                                                                                                                                                                                                                                                          EMPLEADO                                                                        PROFESIÓN U OCUPACIÓN NO ESPECIFICADA                                                                                             0000020082012
D01847283       21082012EMILIN              LUCIA               HUMPPIRE                      CARHUAPUMA                    21091990FS0046557979       11415011311415012804ALTILLO MZ B LT 7                                                                                   05MRCAL RAMON CASTILLA                                                                                                                                                                                    001004822978                                                                                20337564373TIENDAS POR DEPARTAMENTO RIPLEY S.A.                                                                                    15013102LAS BEGONIASNRO 545                                                                                 00                                                                                                                                                                                                        001006115700DSSS            NNN S               000000000001140009000000000021082012NN00093NN0000000085000S42160     0000000000000000NSS18763       NLIMA                                                                            LIMA                                                                            RIMAC                                                                           LIMA                                                                            LIMA                                                                            SAN ISIDRO                                                                      EMPLEADO                                                                        PROFESIÓN U OCUPACIÓN NO ESPECIFICADA                                           OTROS SERVICIOS                                   0000021082012
D01847284       20082012DAVID               ENRIQUE             LINARES                       CALDERON                      26061991MS0047252747       11420070111413020502PROGRESO NRO 02516                                                                                  00                                                                                                                                                                                                        001949979053DAVID_LINARES91@HOTMAIL.COM                                                     00000000000                                                                                                                        00000000                                                                                                    00                                                                                                                                                                                                        000000000000ISSS            NNN S               000000000001140009000000000021082012NN00000NN0000000075000S31467     0000000000000000NSS15951       NLA LIBERTAD                                                                     ASCOPE                                                                          PAIJAN                                                                                                                                                                                                                                                                                                                          EMPLEADO                                                                        PROFESIÓN U OCUPACIÓN NO ESPECIFICADA                                                                                             0000020082012
D01847285       20082012TANY                JEANPIERE           PUPUCHE                       RIOS                          21051994MS0048331423       11414010111414010105I LT 11                                                                                             034 DE NOVIEMBRE                                                                                                                                                                                          001976119693GEMINIS.2194@HOTMAIL.COM                                                        00000000000                                                                                                                        00000000                                                                                                    00                                                                                                                                                                                                        000000000000ISSS            NNN1S               000000000001140009000000000021082012NN00000SN0000000075000S34572     0000000000000000NSS18928       NLAMBAYEQUE                                                                      CHICLAYO                                                                        CHICLAYO                                                                                                                                                                                                                                                                                                                        EMPLEADO                                                                        PROFESIÓN U OCUPACIÓN NO ESPECIFICADA                                                                                             0000020082012
D01847286       21082012JORGE               LUIS DAVID          QUINO                         MIRANDA                       09031993MS0073173251       11415011311415011201CAJAMARCA NRO 269                                                                                   01EL ERMITAŃO                                                                                                                                                                                             001984753138                                                                                00000000000                                                                                                                        00000000                                                                                                    00                                                                                                                                                                                                        000000000000ISSS            NNN S               000000000001140009000000000021082012NN00000NN0000000085000S38246     0000000000000000NSS15952       NLIMA                                                                            LIMA                                                                            INDEPENDENCIA                                                                                                                                                                                                                                                                                                                   EMPLEADO                                                                        PROFESIÓN U OCUPACIÓN NO ESPECIFICADA                                                                                             0000021082012
D01847288       21082012ELIZABETH           JESSICA             PEŃA                          BERMUDEZ                      08021979FD0040094286       11414010111415013503JHON KENNEDY NRO 432                                                                                00                                                                                                                                                                                                        001001111111                                                                                20337564373TIENDAS POR DEPARTAMENTO RIPLEY S.A.                                                                                    15013102LAS BEGONIASNRO 574                                                                                 00                                                                                                                                                                                                        001001111111DSSS            NNN S               000000000001140009000000000021082012NN00093NN0000000085000S42160     0000000000000000NSS18763       NLIMA                                                                            LIMA                                                                            SAN MARTIN DE PORRES                                                            LIMA                                                                            LIMA                                                                            SAN ISIDRO                                                                      EMPLEADO                                                                        PROFESIÓN U OCUPACIÓN NO ESPECIFICADA                                           OTROS SERVICIOS                                   0000021082012
D01847289       20082012LLARELY                                 MORI                          HIDALGO                       16021993FS0072014095       11401030711401030703S/N                                                                                                 05ANEXO CHOSGON BARRIO LA LAGUNA                                                                                                                                                                          001965631119INOLVIDABLE1993@HOTMAIL.COM                                                     20492687180SERPAEM S.A.C.                                                                                                          15013003AVIACIONNRO 3331 DPTO 301                                                                           00                                                                                                                                                                                                        001002265739DSSS            NNN S               000000000001140009000000000021082012NN00093NN0000000075000S41539     0000000000000000NSS18157       NAMAZONAS                                                                        BONGARA                                                                         JAZAN                                                                           LIMA                                                                            LIMA                                                                            SAN BORJA                                                                       EMPLEADO                                                                        PROFESIÓN U OCUPACIÓN NO ESPECIFICADA                                           OTROS SERVICIOS                                   0000020082012
D01847291       20082012YOLANDA             JACKELINE           MARIN                         DAVILA                        02081991FS0072230945       11420070111406030101AUGUSTO GIL NRO 192                                                                                 00                                                                                                                                                                                                        001076358584YJMD_LEO@HOTMAIL.COM                                                            00000000000                                                                                                                        00000000                                                                                                    00                                                                                                                                                                                                        000000000000ISSS            NNN1S               000000000001140009000000000021082012NN00000SN0000000085000S31983     0000000000000000NSS18696       NCAJAMARCA                                                                       CELENDIN                                                                        CELENDIN                                                                                                                                                                                                                                                                                                                        EMPLEADO                                                                        PROFESIÓN U OCUPACIÓN NO ESPECIFICADA                                                                                             0000020082012
D01847292       20082012CHRISTIAN           JUNIOR              AREVALO                       TERRONES                      26101993MS0048010894       11413020511413010503INDOAMERICA MZ C - 18 LT 14                                                                         01MANUEL AREVALO                                                                                                                                                                                          001971738492                                                                                00000000000                                                                                                                        00000000                                                                                                    00                                                                                                                                                                                                        000000000000ISSS            NNN S               000000000001140009000000000021082012NN00000NN0000000150000S31467     0000000000000000NSS15951       NLA LIBERTAD                                                                     TRUJILLO                                                                        LA ESPERANZA                                                                                                                                                                                                                                                                                                                    EMPLEADO                                                                        PROFESIÓN U OCUPACIÓN NO ESPECIFICADA                                                                                             0000020082012
D01847293       21082012JORDY               MARTIN              CUICAPUSA                     FLORES                        21111993MS0070139360       11412010111415013205D LT 01 GRUPO 5                                                                                     02CRUZ DE MOTUPE                                                                                                                                                                                          001997282421JORDY_SCORPIO_1993@HOTMAIL.COM                                                  00000000000                                                                                                                        00000000                                                                                                    00                                                                                                                                                                                                        000000000000ISSS            NNN S               000000000001140009000000000021082012NN00000NN0000000085000S31467     0000000000000000NSS15951       NLIMA                                                                            LIMA                                                                            SAN JUAN DE LURIGANCHO                                                                                                                                                                                                                                                                                                          EMPLEADO                                                                        PROFESIÓN U OCUPACIÓN NO ESPECIFICADA                                                                                             0000021082012
D01847294       21082012FLOR                DE MARIA            CCORAHUA                      CORAHUA                       01071987FS0044367072       11415013311415013705B LT 9                                                                                              01VILLA LA ROLLA                                                                                                                                                                                          001958913770                                                                                20337564373TIENDAS POR DEPARTAMENTO RIPLEY S.A.                                                                                    15013102LAS BEGONIASNRO 545                                                                                 00                                                                                                                                                                                                        001006115700DSSS            NNN S               000000000001140009000000000021082012NN00093NN0000000085000S42160     0000000000000000NSS18763       NLIMA                                                                            LIMA                                                                            SANTA ANITA                                                                     LIMA                                                                            LIMA                                                                            SAN ISIDRO                                                                      EMPLEADO                                                                        PROFESIÓN U OCUPACIÓN NO ESPECIFICADA                                           OTROS SERVICIOS                                   0000021082012
D01847295       20082012CLAUDIO             ALEXANDER           RODRIGUEZ                     MONCAYO                       20061992MS0072625312       11414030111414030103MIGUEL GRAU NRO 637                                                                                 00                                                                                                                                                                                                        001978814007CLAUDIO_BAYSBOYS@HOTMAIL.COM                                                    00000000000                                                                                                                        00000000                                                                                                    00                                                                                                                                                                                                        000000000000ISSS            NNN1S               000000000001140009000000000021082012NN00000SN0000000075000S34572     0000000000000000NSS18928       NLAMBAYEQUE                                                                      LAMBAYEQUE                                                                      LAMBAYEQUE                                                                                                                                                                                                                                                                                                                      EMPLEADO                                                                        PROFESIÓN U OCUPACIÓN NO ESPECIFICADA                                                                                             0000020082012
D01847296       21082012PILAR               MARIA               BARJA                         RODRIGUEZ                     12101981FS0041114954       11414010111415012305A LT 6                                                                                              04LAS FLORES                                                                                                                                                                                              001993008571                                                                                20337564373TIENDAS POR DEPARTAMENTO RIPLEY S.A.                                                                                    15013102LAS BEGONIASNRO 574                                                                                 00                                                                                                                                                                                                        001001111111DSSS            NNN S               000000000001140009000000000021082012NN00093NN0000000085000S42160     0000000000000000NSS18763       NLIMA                                                                            LIMA                                                                            PACHACAMAC                                                                      LIMA                                                                            LIMA                                                                            SAN ISIDRO                                                                      EMPLEADO                                                                        PROFESIÓN U OCUPACIÓN NO ESPECIFICADA                                           OTROS SERVICIOS                                   0000021082012
