E056721082012                                                                                                                                                                                                                                                                                                                                                                                                                                                                                                                                                                          
DPR01278798     C04011202ISMODES NRO 124                                                                                     01GUARDIA CIVIL 2DA ETAPA                                                                                                                                                                                 AREQUIPA                                                                        AREQUIPA                                                                        PAUCARPATA                                                                      
DPR01278798     L15010803DEFENSORES DEL MORRO NRO 2066                                                                       00                                                                                                                                                                                                        LIMA                                                                            LIMA                                                                            CHORRILLOS                                                                      
DPR01294062     C15013603LOS INSURGENTES NRO 475                                                                             00                                                                                                                                                                                                        LIMA                                                                            LIMA                                                                            SAN MIGUEL                                                                      
DPR01294062     L15013103SANTO TORIBIO NRO 143 PISO 4                                                                        00                                                                                                                                                                                                        LIMA                                                                            LIMA                                                                            SAN ISIDRO                                                                      
DPR01294645     C15012202GENERAL VARELA NRO 545 INT 13                                                                       00                                                                                                                                                                                                        LIMA                                                                            LIMA                                                                            MIRAFLORES                                                                      
DPR01294645     L15011503NICOLAS ARRIOLA NRO 480                                                                             05SANTA CATALINA                                                                                                                                                                                          LIMA                                                                            LIMA                                                                            LA VICTORIA                                                                     
S00000008                                                                                                                                                                                                                                                                                                                                                                                                                                                                                                                                                                              
